{"abi":[{"inputs":[{"internalType":"uint256","name":"","type":"uint256"}],"name":"Files","outputs":[{"internalType":"uint256","name":"fileId","type":"uint256"},{"internalType":"string","name":"filename","type":"string"},{"internalType":"string","name":"filehash","type":"string"},{"internalType":"uint256","name":"filesize","type":"uint256"},{"internalType":"string","name":"filedescription","type":"string"},{"internalType":"uint256","name":"uploadTime","type":"uint256"},{"internalType":"address","name":"uploader","type":"address"}],"stateMutability":"view","type":"function"},{"inputs":[{"internalType":"string","name":"_filename","type":"string"},{"internalType":"string","name":"_filehash","type":"string"},{"internalType":"uint256","name":"_filesize","type":"uint256"},{"internalType":"string","name":"_filedescription","type":"string"}],"name":"addFiles","outputs":[],"stateMutability":"nonpayable","type":"function"},{"inputs":[],"name":"fileIndex","outputs":[{"internalType":"uint256","name":"","type":"uint256"}],"stateMutability":"view","type":"function"}],"devdoc":{"kind":"dev","methods":{},"version":1},"evm":{"assembly":"    /* \"File.sol\":60:896  contract FileContract{\r... */\n  mstore(0x40, 0x80)\n    /* \"File.sol\":116:117  0 */\n  0x00\n    /* \"File.sol\":94:117  uint public fileIndex=0 */\n  dup1\n  sstore\n    /* \"File.sol\":60:896  contract FileContract{\r... */\n  callvalue\n  dup1\n  iszero\n  tag_1\n  jumpi\n  0x00\n  dup1\n  revert\ntag_1:\n  pop\n  dataSize(sub_0)\n  dup1\n  dataOffset(sub_0)\n  0x00\n  codecopy\n  0x00\n  return\nstop\n\nsub_0: assembly {\n        /* \"File.sol\":60:896  contract FileContract{\r... */\n      mstore(0x40, 0x80)\n      callvalue\n      dup1\n      iszero\n      tag_1\n      jumpi\n      0x00\n      dup1\n      revert\n    tag_1:\n      pop\n      jumpi(tag_2, lt(calldatasize, 0x04))\n      shr(0xe0, calldataload(0x00))\n      dup1\n      0x47d52ef2\n      eq\n      tag_3\n      jumpi\n      dup1\n      0x817e1cc5\n      eq\n      tag_4\n      jumpi\n      dup1\n      0xa1b4dce7\n      eq\n      tag_5\n      jumpi\n    tag_2:\n      0x00\n      dup1\n      revert\n        /* \"File.sol\":359:396  mapping(uint => newFile) public Files */\n    tag_3:\n      tag_6\n      0x04\n      dup1\n      calldatasize\n      sub\n      dup2\n      add\n      swap1\n      tag_7\n      swap2\n      swap1\n      tag_8\n      jump\t// in\n    tag_7:\n      tag_9\n      jump\t// in\n    tag_6:\n      mload(0x40)\n      tag_10\n      swap8\n      swap7\n      swap6\n      swap5\n      swap4\n      swap3\n      swap2\n      swap1\n      tag_11\n      jump\t// in\n    tag_10:\n      mload(0x40)\n      dup1\n      swap2\n      sub\n      swap1\n      return\n        /* \"File.sol\":409:893  function addFiles(string memory _filename,string memory _filehash,uint _filesize,string memory _filedescription) public{\r... */\n    tag_4:\n      tag_12\n      0x04\n      dup1\n      calldatasize\n      sub\n      dup2\n      add\n      swap1\n      tag_13\n      swap2\n      swap1\n      tag_14\n      jump\t// in\n    tag_13:\n      tag_15\n      jump\t// in\n    tag_12:\n      stop\n        /* \"File.sol\":94:117  uint public fileIndex=0 */\n    tag_5:\n      tag_16\n      tag_17\n      jump\t// in\n    tag_16:\n      mload(0x40)\n      tag_18\n      swap2\n      swap1\n      tag_19\n      jump\t// in\n    tag_18:\n      mload(0x40)\n      dup1\n      swap2\n      sub\n      swap1\n      return\n        /* \"File.sol\":359:396  mapping(uint => newFile) public Files */\n    tag_9:\n      mstore(0x20, 0x01)\n      dup1\n      0x00\n      mstore\n      keccak256(0x00, 0x40)\n      0x00\n      swap2\n      pop\n      swap1\n      pop\n      dup1\n      0x00\n      add\n      sload\n      swap1\n      dup1\n      0x01\n      add\n      dup1\n      sload\n      tag_20\n      swap1\n      tag_21\n      jump\t// in\n    tag_20:\n      dup1\n      0x1f\n      add\n      0x20\n      dup1\n      swap2\n      div\n      mul\n      0x20\n      add\n      mload(0x40)\n      swap1\n      dup2\n      add\n      0x40\n      mstore\n      dup1\n      swap3\n      swap2\n      swap1\n      dup2\n      dup2\n      mstore\n      0x20\n      add\n      dup3\n      dup1\n      sload\n      tag_22\n      swap1\n      tag_21\n      jump\t// in\n    tag_22:\n      dup1\n      iszero\n      tag_23\n      jumpi\n      dup1\n      0x1f\n      lt\n      tag_24\n      jumpi\n      0x0100\n      dup1\n      dup4\n      sload\n      div\n      mul\n      dup4\n      mstore\n      swap2\n      0x20\n      add\n      swap2\n      jump(tag_23)\n    tag_24:\n      dup3\n      add\n      swap2\n      swap1\n      0x00\n      mstore\n      keccak256(0x00, 0x20)\n      swap1\n    tag_25:\n      dup2\n      sload\n      dup2\n      mstore\n      swap1\n      0x01\n      add\n      swap1\n      0x20\n      add\n      dup1\n      dup4\n      gt\n      tag_25\n      jumpi\n      dup3\n      swap1\n      sub\n      0x1f\n      and\n      dup3\n      add\n      swap2\n    tag_23:\n      pop\n      pop\n      pop\n      pop\n      pop\n      swap1\n      dup1\n      0x02\n      add\n      dup1\n      sload\n      tag_26\n      swap1\n      tag_21\n      jump\t// in\n    tag_26:\n      dup1\n      0x1f\n      add\n      0x20\n      dup1\n      swap2\n      div\n      mul\n      0x20\n      add\n      mload(0x40)\n      swap1\n      dup2\n      add\n      0x40\n      mstore\n      dup1\n      swap3\n      swap2\n      swap1\n      dup2\n      dup2\n      mstore\n      0x20\n      add\n      dup3\n      dup1\n      sload\n      tag_27\n      swap1\n      tag_21\n      jump\t// in\n    tag_27:\n      dup1\n      iszero\n      tag_28\n      jumpi\n      dup1\n      0x1f\n      lt\n      tag_29\n      jumpi\n      0x0100\n      dup1\n      dup4\n      sload\n      div\n      mul\n      dup4\n      mstore\n      swap2\n      0x20\n      add\n      swap2\n      jump(tag_28)\n    tag_29:\n      dup3\n      add\n      swap2\n      swap1\n      0x00\n      mstore\n      keccak256(0x00, 0x20)\n      swap1\n    tag_30:\n      dup2\n      sload\n      dup2\n      mstore\n      swap1\n      0x01\n      add\n      swap1\n      0x20\n      add\n      dup1\n      dup4\n      gt\n      tag_30\n      jumpi\n      dup3\n      swap1\n      sub\n      0x1f\n      and\n      dup3\n      add\n      swap2\n    tag_28:\n      pop\n      pop\n      pop\n      pop\n      pop\n      swap1\n      dup1\n      0x03\n      add\n      sload\n      swap1\n      dup1\n      0x04\n      add\n      dup1\n      sload\n      tag_31\n      swap1\n      tag_21\n      jump\t// in\n    tag_31:\n      dup1\n      0x1f\n      add\n      0x20\n      dup1\n      swap2\n      div\n      mul\n      0x20\n      add\n      mload(0x40)\n      swap1\n      dup2\n      add\n      0x40\n      mstore\n      dup1\n      swap3\n      swap2\n      swap1\n      dup2\n      dup2\n      mstore\n      0x20\n      add\n      dup3\n      dup1\n      sload\n      tag_32\n      swap1\n      tag_21\n      jump\t// in\n    tag_32:\n      dup1\n      iszero\n      tag_33\n      jumpi\n      dup1\n      0x1f\n      lt\n      tag_34\n      jumpi\n      0x0100\n      dup1\n      dup4\n      sload\n      div\n      mul\n      dup4\n      mstore\n      swap2\n      0x20\n      add\n      swap2\n      jump(tag_33)\n    tag_34:\n      dup3\n      add\n      swap2\n      swap1\n      0x00\n      mstore\n      keccak256(0x00, 0x20)\n      swap1\n    tag_35:\n      dup2\n      sload\n      dup2\n      mstore\n      swap1\n      0x01\n      add\n      swap1\n      0x20\n      add\n      dup1\n      dup4\n      gt\n      tag_35\n      jumpi\n      dup3\n      swap1\n      sub\n      0x1f\n      and\n      dup3\n      add\n      swap2\n    tag_33:\n      pop\n      pop\n      pop\n      pop\n      pop\n      swap1\n      dup1\n      0x05\n      add\n      sload\n      swap1\n      dup1\n      0x06\n      add\n      0x00\n      swap1\n      sload\n      swap1\n      0x0100\n      exp\n      swap1\n      div\n      0xffffffffffffffffffffffffffffffffffffffff\n      and\n      swap1\n      pop\n      dup8\n      jump\t// out\n        /* \"File.sol\":409:893  function addFiles(string memory _filename,string memory _filehash,uint _filesize,string memory _filedescription) public{\r... */\n    tag_15:\n        /* \"File.sol\":571:572  0 */\n      0x00\n        /* \"File.sol\":553:562  _filename */\n      dup5\n        /* \"File.sol\":547:570  bytes(_filename).length */\n      mload\n        /* \"File.sol\":547:572  bytes(_filename).length>0 */\n      gt\n        /* \"File.sol\":539:573  require(bytes(_filename).length>0) */\n      tag_37\n      jumpi\n      0x00\n      dup1\n      revert\n    tag_37:\n        /* \"File.sol\":616:617  0 */\n      0x00\n        /* \"File.sol\":598:607  _filehash */\n      dup4\n        /* \"File.sol\":592:615  bytes(_filehash).length */\n      mload\n        /* \"File.sol\":592:617  bytes(_filehash).length>0 */\n      gt\n        /* \"File.sol\":584:618  require(bytes(_filehash).length>0) */\n      tag_38\n      jumpi\n      0x00\n      dup1\n      revert\n    tag_38:\n        /* \"File.sol\":668:669  0 */\n      0x00\n        /* \"File.sol\":643:659  _filedescription */\n      dup2\n        /* \"File.sol\":637:667  bytes(_filedescription).length */\n      mload\n        /* \"File.sol\":637:669  bytes(_filedescription).length>0 */\n      gt\n        /* \"File.sol\":629:670  require(bytes(_filedescription).length>0) */\n      tag_39\n      jumpi\n      0x00\n      dup1\n      revert\n    tag_39:\n        /* \"File.sol\":709:710  0 */\n      0x00\n        /* \"File.sol\":689:711  msg.sender!=address(0) */\n      0xffffffffffffffffffffffffffffffffffffffff\n      and\n        /* \"File.sol\":689:699  msg.sender */\n      caller\n        /* \"File.sol\":689:711  msg.sender!=address(0) */\n      0xffffffffffffffffffffffffffffffffffffffff\n      and\n      eq\n      iszero\n        /* \"File.sol\":681:712  require(msg.sender!=address(0)) */\n      tag_40\n      jumpi\n      0x00\n      dup1\n      revert\n    tag_40:\n        /* \"File.sol\":741:742  0 */\n      0x00\n        /* \"File.sol\":731:740  _filesize */\n      dup3\n        /* \"File.sol\":731:742  _filesize>0 */\n      gt\n        /* \"File.sol\":723:743  require(_filesize>0) */\n      tag_41\n      jumpi\n      0x00\n      dup1\n      revert\n    tag_41:\n        /* \"File.sol\":754:763  fileIndex */\n      0x00\n      dup1\n        /* \"File.sol\":754:765  fileIndex++ */\n      dup2\n      sload\n      dup1\n      swap3\n      swap2\n      swap1\n      tag_42\n      swap1\n      tag_43\n      jump\t// in\n    tag_42:\n      swap2\n      swap1\n      pop\n      sstore\n      pop\n        /* \"File.sol\":793:885  newFile(fileIndex,_filename,_filehash,_filesize,_filedescription,block.timestamp,msg.sender) */\n      mload(0x40)\n      dup1\n      0xe0\n      add\n      0x40\n      mstore\n      dup1\n        /* \"File.sol\":801:810  fileIndex */\n      sload(0x00)\n        /* \"File.sol\":793:885  newFile(fileIndex,_filename,_filehash,_filesize,_filedescription,block.timestamp,msg.sender) */\n      dup2\n      mstore\n      0x20\n      add\n        /* \"File.sol\":811:820  _filename */\n      dup6\n        /* \"File.sol\":793:885  newFile(fileIndex,_filename,_filehash,_filesize,_filedescription,block.timestamp,msg.sender) */\n      dup2\n      mstore\n      0x20\n      add\n        /* \"File.sol\":821:830  _filehash */\n      dup5\n        /* \"File.sol\":793:885  newFile(fileIndex,_filename,_filehash,_filesize,_filedescription,block.timestamp,msg.sender) */\n      dup2\n      mstore\n      0x20\n      add\n        /* \"File.sol\":831:840  _filesize */\n      dup4\n        /* \"File.sol\":793:885  newFile(fileIndex,_filename,_filehash,_filesize,_filedescription,block.timestamp,msg.sender) */\n      dup2\n      mstore\n      0x20\n      add\n        /* \"File.sol\":841:857  _filedescription */\n      dup3\n        /* \"File.sol\":793:885  newFile(fileIndex,_filename,_filehash,_filesize,_filedescription,block.timestamp,msg.sender) */\n      dup2\n      mstore\n      0x20\n      add\n        /* \"File.sol\":858:873  block.timestamp */\n      timestamp\n        /* \"File.sol\":793:885  newFile(fileIndex,_filename,_filehash,_filesize,_filedescription,block.timestamp,msg.sender) */\n      dup2\n      mstore\n      0x20\n      add\n        /* \"File.sol\":874:884  msg.sender */\n      caller\n        /* \"File.sol\":793:885  newFile(fileIndex,_filename,_filehash,_filesize,_filedescription,block.timestamp,msg.sender) */\n      0xffffffffffffffffffffffffffffffffffffffff\n      and\n      dup2\n      mstore\n      pop\n        /* \"File.sol\":776:781  Files */\n      0x01\n        /* \"File.sol\":776:792  Files[fileIndex] */\n      0x00\n        /* \"File.sol\":782:791  fileIndex */\n      dup1\n      sload\n        /* \"File.sol\":776:792  Files[fileIndex] */\n      dup2\n      mstore\n      0x20\n      add\n      swap1\n      dup2\n      mstore\n      0x20\n      add\n      0x00\n      keccak256\n        /* \"File.sol\":776:885  Files[fileIndex]=newFile(fileIndex,_filename,_filehash,_filesize,_filedescription,block.timestamp,msg.sender) */\n      0x00\n      dup3\n      add\n      mload\n      dup2\n      0x00\n      add\n      sstore\n      0x20\n      dup3\n      add\n      mload\n      dup2\n      0x01\n      add\n      swap1\n      dup1\n      mload\n      swap1\n      0x20\n      add\n      swap1\n      tag_44\n      swap3\n      swap2\n      swap1\n      tag_45\n      jump\t// in\n    tag_44:\n      pop\n      0x40\n      dup3\n      add\n      mload\n      dup2\n      0x02\n      add\n      swap1\n      dup1\n      mload\n      swap1\n      0x20\n      add\n      swap1\n      tag_46\n      swap3\n      swap2\n      swap1\n      tag_45\n      jump\t// in\n    tag_46:\n      pop\n      0x60\n      dup3\n      add\n      mload\n      dup2\n      0x03\n      add\n      sstore\n      0x80\n      dup3\n      add\n      mload\n      dup2\n      0x04\n      add\n      swap1\n      dup1\n      mload\n      swap1\n      0x20\n      add\n      swap1\n      tag_47\n      swap3\n      swap2\n      swap1\n      tag_45\n      jump\t// in\n    tag_47:\n      pop\n      0xa0\n      dup3\n      add\n      mload\n      dup2\n      0x05\n      add\n      sstore\n      0xc0\n      dup3\n      add\n      mload\n      dup2\n      0x06\n      add\n      exp(0x0100, 0x00)\n      dup2\n      sload\n      dup2\n      0xffffffffffffffffffffffffffffffffffffffff\n      mul\n      not\n      and\n      swap1\n      dup4\n      0xffffffffffffffffffffffffffffffffffffffff\n      and\n      mul\n      or\n      swap1\n      sstore\n      pop\n      swap1\n      pop\n      pop\n        /* \"File.sol\":409:893  function addFiles(string memory _filename,string memory _filehash,uint _filesize,string memory _filedescription) public{\r... */\n      pop\n      pop\n      pop\n      pop\n      jump\t// out\n        /* \"File.sol\":94:117  uint public fileIndex=0 */\n    tag_17:\n      sload(0x00)\n      dup2\n      jump\t// out\n    tag_45:\n      dup3\n      dup1\n      sload\n      tag_48\n      swap1\n      tag_21\n      jump\t// in\n    tag_48:\n      swap1\n      0x00\n      mstore\n      keccak256(0x00, 0x20)\n      swap1\n      0x1f\n      add\n      0x20\n      swap1\n      div\n      dup2\n      add\n      swap3\n      dup3\n      tag_50\n      jumpi\n      0x00\n      dup6\n      sstore\n      jump(tag_49)\n    tag_50:\n      dup3\n      0x1f\n      lt\n      tag_51\n      jumpi\n      dup1\n      mload\n      not(0xff)\n      and\n      dup4\n      dup1\n      add\n      or\n      dup6\n      sstore\n      jump(tag_49)\n    tag_51:\n      dup3\n      dup1\n      add\n      0x01\n      add\n      dup6\n      sstore\n      dup3\n      iszero\n      tag_49\n      jumpi\n      swap2\n      dup3\n      add\n    tag_52:\n      dup3\n      dup2\n      gt\n      iszero\n      tag_53\n      jumpi\n      dup3\n      mload\n      dup3\n      sstore\n      swap2\n      0x20\n      add\n      swap2\n      swap1\n      0x01\n      add\n      swap1\n      jump(tag_52)\n    tag_53:\n    tag_49:\n      pop\n      swap1\n      pop\n      tag_54\n      swap2\n      swap1\n      tag_55\n      jump\t// in\n    tag_54:\n      pop\n      swap1\n      jump\t// out\n    tag_55:\n    tag_56:\n      dup1\n      dup3\n      gt\n      iszero\n      tag_57\n      jumpi\n      0x00\n      dup2\n      0x00\n      swap1\n      sstore\n      pop\n      0x01\n      add\n      jump(tag_56)\n    tag_57:\n      pop\n      swap1\n      jump\t// out\n        /* \"#utility.yul\":7:419   */\n    tag_59:\n        /* \"#utility.yul\":85:90   */\n      0x00\n        /* \"#utility.yul\":110:176   */\n      tag_61\n        /* \"#utility.yul\":126:175   */\n      tag_62\n        /* \"#utility.yul\":168:174   */\n      dup5\n        /* \"#utility.yul\":126:175   */\n      tag_63\n      jump\t// in\n    tag_62:\n        /* \"#utility.yul\":110:176   */\n      tag_64\n      jump\t// in\n    tag_61:\n        /* \"#utility.yul\":101:176   */\n      swap1\n      pop\n        /* \"#utility.yul\":199:205   */\n      dup3\n        /* \"#utility.yul\":192:197   */\n      dup2\n        /* \"#utility.yul\":185:206   */\n      mstore\n        /* \"#utility.yul\":237:241   */\n      0x20\n        /* \"#utility.yul\":230:235   */\n      dup2\n        /* \"#utility.yul\":226:242   */\n      add\n        /* \"#utility.yul\":275:278   */\n      dup5\n        /* \"#utility.yul\":266:272   */\n      dup5\n        /* \"#utility.yul\":261:264   */\n      dup5\n        /* \"#utility.yul\":257:273   */\n      add\n        /* \"#utility.yul\":254:279   */\n      gt\n        /* \"#utility.yul\":251:363   */\n      iszero\n      tag_65\n      jumpi\n        /* \"#utility.yul\":282:361   */\n      tag_66\n      tag_67\n      jump\t// in\n    tag_66:\n        /* \"#utility.yul\":251:363   */\n    tag_65:\n        /* \"#utility.yul\":372:413   */\n      tag_68\n        /* \"#utility.yul\":406:412   */\n      dup5\n        /* \"#utility.yul\":401:404   */\n      dup3\n        /* \"#utility.yul\":396:399   */\n      dup6\n        /* \"#utility.yul\":372:413   */\n      tag_69\n      jump\t// in\n    tag_68:\n        /* \"#utility.yul\":91:419   */\n      pop\n        /* \"#utility.yul\":7:419   */\n      swap4\n      swap3\n      pop\n      pop\n      pop\n      jump\t// out\n        /* \"#utility.yul\":439:779   */\n    tag_70:\n        /* \"#utility.yul\":495:500   */\n      0x00\n        /* \"#utility.yul\":544:547   */\n      dup3\n        /* \"#utility.yul\":537:541   */\n      0x1f\n        /* \"#utility.yul\":529:535   */\n      dup4\n        /* \"#utility.yul\":525:542   */\n      add\n        /* \"#utility.yul\":521:548   */\n      slt\n        /* \"#utility.yul\":511:633   */\n      tag_72\n      jumpi\n        /* \"#utility.yul\":552:631   */\n      tag_73\n      tag_74\n      jump\t// in\n    tag_73:\n        /* \"#utility.yul\":511:633   */\n    tag_72:\n        /* \"#utility.yul\":669:675   */\n      dup2\n        /* \"#utility.yul\":656:676   */\n      calldataload\n        /* \"#utility.yul\":694:773   */\n      tag_75\n        /* \"#utility.yul\":769:772   */\n      dup5\n        /* \"#utility.yul\":761:767   */\n      dup3\n        /* \"#utility.yul\":754:758   */\n      0x20\n        /* \"#utility.yul\":746:752   */\n      dup7\n        /* \"#utility.yul\":742:759   */\n      add\n        /* \"#utility.yul\":694:773   */\n      tag_59\n      jump\t// in\n    tag_75:\n        /* \"#utility.yul\":685:773   */\n      swap2\n      pop\n        /* \"#utility.yul\":501:779   */\n      pop\n        /* \"#utility.yul\":439:779   */\n      swap3\n      swap2\n      pop\n      pop\n      jump\t// out\n        /* \"#utility.yul\":785:924   */\n    tag_76:\n        /* \"#utility.yul\":831:836   */\n      0x00\n        /* \"#utility.yul\":869:875   */\n      dup2\n        /* \"#utility.yul\":856:876   */\n      calldataload\n        /* \"#utility.yul\":847:876   */\n      swap1\n      pop\n        /* \"#utility.yul\":885:918   */\n      tag_78\n        /* \"#utility.yul\":912:917   */\n      dup2\n        /* \"#utility.yul\":885:918   */\n      tag_79\n      jump\t// in\n    tag_78:\n        /* \"#utility.yul\":785:924   */\n      swap3\n      swap2\n      pop\n      pop\n      jump\t// out\n        /* \"#utility.yul\":930:2235   */\n    tag_14:\n        /* \"#utility.yul\":1046:1052   */\n      0x00\n        /* \"#utility.yul\":1054:1060   */\n      dup1\n        /* \"#utility.yul\":1062:1068   */\n      0x00\n        /* \"#utility.yul\":1070:1076   */\n      dup1\n        /* \"#utility.yul\":1119:1122   */\n      0x80\n        /* \"#utility.yul\":1107:1116   */\n      dup6\n        /* \"#utility.yul\":1098:1105   */\n      dup8\n        /* \"#utility.yul\":1094:1117   */\n      sub\n        /* \"#utility.yul\":1090:1123   */\n      slt\n        /* \"#utility.yul\":1087:1207   */\n      iszero\n      tag_81\n      jumpi\n        /* \"#utility.yul\":1126:1205   */\n      tag_82\n      tag_83\n      jump\t// in\n    tag_82:\n        /* \"#utility.yul\":1087:1207   */\n    tag_81:\n        /* \"#utility.yul\":1274:1275   */\n      0x00\n        /* \"#utility.yul\":1263:1272   */\n      dup6\n        /* \"#utility.yul\":1259:1276   */\n      add\n        /* \"#utility.yul\":1246:1277   */\n      calldataload\n        /* \"#utility.yul\":1304:1322   */\n      0xffffffffffffffff\n        /* \"#utility.yul\":1296:1302   */\n      dup2\n        /* \"#utility.yul\":1293:1323   */\n      gt\n        /* \"#utility.yul\":1290:1407   */\n      iszero\n      tag_84\n      jumpi\n        /* \"#utility.yul\":1326:1405   */\n      tag_85\n      tag_86\n      jump\t// in\n    tag_85:\n        /* \"#utility.yul\":1290:1407   */\n    tag_84:\n        /* \"#utility.yul\":1431:1494   */\n      tag_87\n        /* \"#utility.yul\":1486:1493   */\n      dup8\n        /* \"#utility.yul\":1477:1483   */\n      dup3\n        /* \"#utility.yul\":1466:1475   */\n      dup9\n        /* \"#utility.yul\":1462:1484   */\n      add\n        /* \"#utility.yul\":1431:1494   */\n      tag_70\n      jump\t// in\n    tag_87:\n        /* \"#utility.yul\":1421:1494   */\n      swap5\n      pop\n        /* \"#utility.yul\":1217:1504   */\n      pop\n        /* \"#utility.yul\":1571:1573   */\n      0x20\n        /* \"#utility.yul\":1560:1569   */\n      dup6\n        /* \"#utility.yul\":1556:1574   */\n      add\n        /* \"#utility.yul\":1543:1575   */\n      calldataload\n        /* \"#utility.yul\":1602:1620   */\n      0xffffffffffffffff\n        /* \"#utility.yul\":1594:1600   */\n      dup2\n        /* \"#utility.yul\":1591:1621   */\n      gt\n        /* \"#utility.yul\":1588:1705   */\n      iszero\n      tag_88\n      jumpi\n        /* \"#utility.yul\":1624:1703   */\n      tag_89\n      tag_86\n      jump\t// in\n    tag_89:\n        /* \"#utility.yul\":1588:1705   */\n    tag_88:\n        /* \"#utility.yul\":1729:1792   */\n      tag_90\n        /* \"#utility.yul\":1784:1791   */\n      dup8\n        /* \"#utility.yul\":1775:1781   */\n      dup3\n        /* \"#utility.yul\":1764:1773   */\n      dup9\n        /* \"#utility.yul\":1760:1782   */\n      add\n        /* \"#utility.yul\":1729:1792   */\n      tag_70\n      jump\t// in\n    tag_90:\n        /* \"#utility.yul\":1719:1792   */\n      swap4\n      pop\n        /* \"#utility.yul\":1514:1802   */\n      pop\n        /* \"#utility.yul\":1841:1843   */\n      0x40\n        /* \"#utility.yul\":1867:1920   */\n      tag_91\n        /* \"#utility.yul\":1912:1919   */\n      dup8\n        /* \"#utility.yul\":1903:1909   */\n      dup3\n        /* \"#utility.yul\":1892:1901   */\n      dup9\n        /* \"#utility.yul\":1888:1910   */\n      add\n        /* \"#utility.yul\":1867:1920   */\n      tag_76\n      jump\t// in\n    tag_91:\n        /* \"#utility.yul\":1857:1920   */\n      swap3\n      pop\n        /* \"#utility.yul\":1812:1930   */\n      pop\n        /* \"#utility.yul\":1997:1999   */\n      0x60\n        /* \"#utility.yul\":1986:1995   */\n      dup6\n        /* \"#utility.yul\":1982:2000   */\n      add\n        /* \"#utility.yul\":1969:2001   */\n      calldataload\n        /* \"#utility.yul\":2028:2046   */\n      0xffffffffffffffff\n        /* \"#utility.yul\":2020:2026   */\n      dup2\n        /* \"#utility.yul\":2017:2047   */\n      gt\n        /* \"#utility.yul\":2014:2131   */\n      iszero\n      tag_92\n      jumpi\n        /* \"#utility.yul\":2050:2129   */\n      tag_93\n      tag_86\n      jump\t// in\n    tag_93:\n        /* \"#utility.yul\":2014:2131   */\n    tag_92:\n        /* \"#utility.yul\":2155:2218   */\n      tag_94\n        /* \"#utility.yul\":2210:2217   */\n      dup8\n        /* \"#utility.yul\":2201:2207   */\n      dup3\n        /* \"#utility.yul\":2190:2199   */\n      dup9\n        /* \"#utility.yul\":2186:2208   */\n      add\n        /* \"#utility.yul\":2155:2218   */\n      tag_70\n      jump\t// in\n    tag_94:\n        /* \"#utility.yul\":2145:2218   */\n      swap2\n      pop\n        /* \"#utility.yul\":1940:2228   */\n      pop\n        /* \"#utility.yul\":930:2235   */\n      swap3\n      swap6\n      swap2\n      swap5\n      pop\n      swap3\n      pop\n      jump\t// out\n        /* \"#utility.yul\":2241:2570   */\n    tag_8:\n        /* \"#utility.yul\":2300:2306   */\n      0x00\n        /* \"#utility.yul\":2349:2351   */\n      0x20\n        /* \"#utility.yul\":2337:2346   */\n      dup3\n        /* \"#utility.yul\":2328:2335   */\n      dup5\n        /* \"#utility.yul\":2324:2347   */\n      sub\n        /* \"#utility.yul\":2320:2352   */\n      slt\n        /* \"#utility.yul\":2317:2436   */\n      iszero\n      tag_96\n      jumpi\n        /* \"#utility.yul\":2355:2434   */\n      tag_97\n      tag_83\n      jump\t// in\n    tag_97:\n        /* \"#utility.yul\":2317:2436   */\n    tag_96:\n        /* \"#utility.yul\":2475:2476   */\n      0x00\n        /* \"#utility.yul\":2500:2553   */\n      tag_98\n        /* \"#utility.yul\":2545:2552   */\n      dup5\n        /* \"#utility.yul\":2536:2542   */\n      dup3\n        /* \"#utility.yul\":2525:2534   */\n      dup6\n        /* \"#utility.yul\":2521:2543   */\n      add\n        /* \"#utility.yul\":2500:2553   */\n      tag_76\n      jump\t// in\n    tag_98:\n        /* \"#utility.yul\":2490:2553   */\n      swap2\n      pop\n        /* \"#utility.yul\":2446:2563   */\n      pop\n        /* \"#utility.yul\":2241:2570   */\n      swap3\n      swap2\n      pop\n      pop\n      jump\t// out\n        /* \"#utility.yul\":2576:2694   */\n    tag_99:\n        /* \"#utility.yul\":2663:2687   */\n      tag_101\n        /* \"#utility.yul\":2681:2686   */\n      dup2\n        /* \"#utility.yul\":2663:2687   */\n      tag_102\n      jump\t// in\n    tag_101:\n        /* \"#utility.yul\":2658:2661   */\n      dup3\n        /* \"#utility.yul\":2651:2688   */\n      mstore\n        /* \"#utility.yul\":2576:2694   */\n      pop\n      pop\n      jump\t// out\n        /* \"#utility.yul\":2700:3064   */\n    tag_103:\n        /* \"#utility.yul\":2788:2791   */\n      0x00\n        /* \"#utility.yul\":2816:2855   */\n      tag_105\n        /* \"#utility.yul\":2849:2854   */\n      dup3\n        /* \"#utility.yul\":2816:2855   */\n      tag_106\n      jump\t// in\n    tag_105:\n        /* \"#utility.yul\":2871:2942   */\n      tag_107\n        /* \"#utility.yul\":2935:2941   */\n      dup2\n        /* \"#utility.yul\":2930:2933   */\n      dup6\n        /* \"#utility.yul\":2871:2942   */\n      tag_108\n      jump\t// in\n    tag_107:\n        /* \"#utility.yul\":2864:2942   */\n      swap4\n      pop\n        /* \"#utility.yul\":2951:3003   */\n      tag_109\n        /* \"#utility.yul\":2996:3002   */\n      dup2\n        /* \"#utility.yul\":2991:2994   */\n      dup6\n        /* \"#utility.yul\":2984:2988   */\n      0x20\n        /* \"#utility.yul\":2977:2982   */\n      dup7\n        /* \"#utility.yul\":2973:2989   */\n      add\n        /* \"#utility.yul\":2951:3003   */\n      tag_110\n      jump\t// in\n    tag_109:\n        /* \"#utility.yul\":3028:3057   */\n      tag_111\n        /* \"#utility.yul\":3050:3056   */\n      dup2\n        /* \"#utility.yul\":3028:3057   */\n      tag_112\n      jump\t// in\n    tag_111:\n        /* \"#utility.yul\":3023:3026   */\n      dup5\n        /* \"#utility.yul\":3019:3058   */\n      add\n        /* \"#utility.yul\":3012:3058   */\n      swap2\n      pop\n        /* \"#utility.yul\":2792:3064   */\n      pop\n        /* \"#utility.yul\":2700:3064   */\n      swap3\n      swap2\n      pop\n      pop\n      jump\t// out\n        /* \"#utility.yul\":3070:3188   */\n    tag_113:\n        /* \"#utility.yul\":3157:3181   */\n      tag_115\n        /* \"#utility.yul\":3175:3180   */\n      dup2\n        /* \"#utility.yul\":3157:3181   */\n      tag_116\n      jump\t// in\n    tag_115:\n        /* \"#utility.yul\":3152:3155   */\n      dup3\n        /* \"#utility.yul\":3145:3182   */\n      mstore\n        /* \"#utility.yul\":3070:3188   */\n      pop\n      pop\n      jump\t// out\n        /* \"#utility.yul\":3194:3416   */\n    tag_19:\n        /* \"#utility.yul\":3287:3291   */\n      0x00\n        /* \"#utility.yul\":3325:3327   */\n      0x20\n        /* \"#utility.yul\":3314:3323   */\n      dup3\n        /* \"#utility.yul\":3310:3328   */\n      add\n        /* \"#utility.yul\":3302:3328   */\n      swap1\n      pop\n        /* \"#utility.yul\":3338:3409   */\n      tag_118\n        /* \"#utility.yul\":3406:3407   */\n      0x00\n        /* \"#utility.yul\":3395:3404   */\n      dup4\n        /* \"#utility.yul\":3391:3408   */\n      add\n        /* \"#utility.yul\":3382:3388   */\n      dup5\n        /* \"#utility.yul\":3338:3409   */\n      tag_113\n      jump\t// in\n    tag_118:\n        /* \"#utility.yul\":3194:3416   */\n      swap3\n      swap2\n      pop\n      pop\n      jump\t// out\n        /* \"#utility.yul\":3422:4581   */\n    tag_11:\n        /* \"#utility.yul\":3743:3747   */\n      0x00\n        /* \"#utility.yul\":3781:3784   */\n      0xe0\n        /* \"#utility.yul\":3770:3779   */\n      dup3\n        /* \"#utility.yul\":3766:3785   */\n      add\n        /* \"#utility.yul\":3758:3785   */\n      swap1\n      pop\n        /* \"#utility.yul\":3795:3866   */\n      tag_120\n        /* \"#utility.yul\":3863:3864   */\n      0x00\n        /* \"#utility.yul\":3852:3861   */\n      dup4\n        /* \"#utility.yul\":3848:3865   */\n      add\n        /* \"#utility.yul\":3839:3845   */\n      dup11\n        /* \"#utility.yul\":3795:3866   */\n      tag_113\n      jump\t// in\n    tag_120:\n        /* \"#utility.yul\":3913:3922   */\n      dup2\n        /* \"#utility.yul\":3907:3911   */\n      dup2\n        /* \"#utility.yul\":3903:3923   */\n      sub\n        /* \"#utility.yul\":3898:3900   */\n      0x20\n        /* \"#utility.yul\":3887:3896   */\n      dup4\n        /* \"#utility.yul\":3883:3901   */\n      add\n        /* \"#utility.yul\":3876:3924   */\n      mstore\n        /* \"#utility.yul\":3941:4019   */\n      tag_121\n        /* \"#utility.yul\":4014:4018   */\n      dup2\n        /* \"#utility.yul\":4005:4011   */\n      dup10\n        /* \"#utility.yul\":3941:4019   */\n      tag_103\n      jump\t// in\n    tag_121:\n        /* \"#utility.yul\":3933:4019   */\n      swap1\n      pop\n        /* \"#utility.yul\":4066:4075   */\n      dup2\n        /* \"#utility.yul\":4060:4064   */\n      dup2\n        /* \"#utility.yul\":4056:4076   */\n      sub\n        /* \"#utility.yul\":4051:4053   */\n      0x40\n        /* \"#utility.yul\":4040:4049   */\n      dup4\n        /* \"#utility.yul\":4036:4054   */\n      add\n        /* \"#utility.yul\":4029:4077   */\n      mstore\n        /* \"#utility.yul\":4094:4172   */\n      tag_122\n        /* \"#utility.yul\":4167:4171   */\n      dup2\n        /* \"#utility.yul\":4158:4164   */\n      dup9\n        /* \"#utility.yul\":4094:4172   */\n      tag_103\n      jump\t// in\n    tag_122:\n        /* \"#utility.yul\":4086:4172   */\n      swap1\n      pop\n        /* \"#utility.yul\":4182:4254   */\n      tag_123\n        /* \"#utility.yul\":4250:4252   */\n      0x60\n        /* \"#utility.yul\":4239:4248   */\n      dup4\n        /* \"#utility.yul\":4235:4253   */\n      add\n        /* \"#utility.yul\":4226:4232   */\n      dup8\n        /* \"#utility.yul\":4182:4254   */\n      tag_113\n      jump\t// in\n    tag_123:\n        /* \"#utility.yul\":4302:4311   */\n      dup2\n        /* \"#utility.yul\":4296:4300   */\n      dup2\n        /* \"#utility.yul\":4292:4312   */\n      sub\n        /* \"#utility.yul\":4286:4289   */\n      0x80\n        /* \"#utility.yul\":4275:4284   */\n      dup4\n        /* \"#utility.yul\":4271:4290   */\n      add\n        /* \"#utility.yul\":4264:4313   */\n      mstore\n        /* \"#utility.yul\":4330:4408   */\n      tag_124\n        /* \"#utility.yul\":4403:4407   */\n      dup2\n        /* \"#utility.yul\":4394:4400   */\n      dup7\n        /* \"#utility.yul\":4330:4408   */\n      tag_103\n      jump\t// in\n    tag_124:\n        /* \"#utility.yul\":4322:4408   */\n      swap1\n      pop\n        /* \"#utility.yul\":4418:4491   */\n      tag_125\n        /* \"#utility.yul\":4486:4489   */\n      0xa0\n        /* \"#utility.yul\":4475:4484   */\n      dup4\n        /* \"#utility.yul\":4471:4490   */\n      add\n        /* \"#utility.yul\":4462:4468   */\n      dup6\n        /* \"#utility.yul\":4418:4491   */\n      tag_113\n      jump\t// in\n    tag_125:\n        /* \"#utility.yul\":4501:4574   */\n      tag_126\n        /* \"#utility.yul\":4569:4572   */\n      0xc0\n        /* \"#utility.yul\":4558:4567   */\n      dup4\n        /* \"#utility.yul\":4554:4573   */\n      add\n        /* \"#utility.yul\":4545:4551   */\n      dup5\n        /* \"#utility.yul\":4501:4574   */\n      tag_99\n      jump\t// in\n    tag_126:\n        /* \"#utility.yul\":3422:4581   */\n      swap9\n      swap8\n      pop\n      pop\n      pop\n      pop\n      pop\n      pop\n      pop\n      pop\n      jump\t// out\n        /* \"#utility.yul\":4587:4716   */\n    tag_64:\n        /* \"#utility.yul\":4621:4627   */\n      0x00\n        /* \"#utility.yul\":4648:4668   */\n      tag_128\n      tag_129\n      jump\t// in\n    tag_128:\n        /* \"#utility.yul\":4638:4668   */\n      swap1\n      pop\n        /* \"#utility.yul\":4677:4710   */\n      tag_130\n        /* \"#utility.yul\":4705:4709   */\n      dup3\n        /* \"#utility.yul\":4697:4703   */\n      dup3\n        /* \"#utility.yul\":4677:4710   */\n      tag_131\n      jump\t// in\n    tag_130:\n        /* \"#utility.yul\":4587:4716   */\n      swap2\n      swap1\n      pop\n      jump\t// out\n        /* \"#utility.yul\":4722:4797   */\n    tag_129:\n        /* \"#utility.yul\":4755:4761   */\n      0x00\n        /* \"#utility.yul\":4788:4790   */\n      0x40\n        /* \"#utility.yul\":4782:4791   */\n      mload\n        /* \"#utility.yul\":4772:4791   */\n      swap1\n      pop\n        /* \"#utility.yul\":4722:4797   */\n      swap1\n      jump\t// out\n        /* \"#utility.yul\":4803:5111   */\n    tag_63:\n        /* \"#utility.yul\":4865:4869   */\n      0x00\n        /* \"#utility.yul\":4955:4973   */\n      0xffffffffffffffff\n        /* \"#utility.yul\":4947:4953   */\n      dup3\n        /* \"#utility.yul\":4944:4974   */\n      gt\n        /* \"#utility.yul\":4941:4997   */\n      iszero\n      tag_134\n      jumpi\n        /* \"#utility.yul\":4977:4995   */\n      tag_135\n      tag_136\n      jump\t// in\n    tag_135:\n        /* \"#utility.yul\":4941:4997   */\n    tag_134:\n        /* \"#utility.yul\":5015:5044   */\n      tag_137\n        /* \"#utility.yul\":5037:5043   */\n      dup3\n        /* \"#utility.yul\":5015:5044   */\n      tag_112\n      jump\t// in\n    tag_137:\n        /* \"#utility.yul\":5007:5044   */\n      swap1\n      pop\n        /* \"#utility.yul\":5099:5103   */\n      0x20\n        /* \"#utility.yul\":5093:5097   */\n      dup2\n        /* \"#utility.yul\":5089:5104   */\n      add\n        /* \"#utility.yul\":5081:5104   */\n      swap1\n      pop\n        /* \"#utility.yul\":4803:5111   */\n      swap2\n      swap1\n      pop\n      jump\t// out\n        /* \"#utility.yul\":5117:5216   */\n    tag_106:\n        /* \"#utility.yul\":5169:5175   */\n      0x00\n        /* \"#utility.yul\":5203:5208   */\n      dup2\n        /* \"#utility.yul\":5197:5209   */\n      mload\n        /* \"#utility.yul\":5187:5209   */\n      swap1\n      pop\n        /* \"#utility.yul\":5117:5216   */\n      swap2\n      swap1\n      pop\n      jump\t// out\n        /* \"#utility.yul\":5222:5391   */\n    tag_108:\n        /* \"#utility.yul\":5306:5317   */\n      0x00\n        /* \"#utility.yul\":5340:5346   */\n      dup3\n        /* \"#utility.yul\":5335:5338   */\n      dup3\n        /* \"#utility.yul\":5328:5347   */\n      mstore\n        /* \"#utility.yul\":5380:5384   */\n      0x20\n        /* \"#utility.yul\":5375:5378   */\n      dup3\n        /* \"#utility.yul\":5371:5385   */\n      add\n        /* \"#utility.yul\":5356:5385   */\n      swap1\n      pop\n        /* \"#utility.yul\":5222:5391   */\n      swap3\n      swap2\n      pop\n      pop\n      jump\t// out\n        /* \"#utility.yul\":5397:5493   */\n    tag_102:\n        /* \"#utility.yul\":5434:5441   */\n      0x00\n        /* \"#utility.yul\":5463:5487   */\n      tag_141\n        /* \"#utility.yul\":5481:5486   */\n      dup3\n        /* \"#utility.yul\":5463:5487   */\n      tag_142\n      jump\t// in\n    tag_141:\n        /* \"#utility.yul\":5452:5487   */\n      swap1\n      pop\n        /* \"#utility.yul\":5397:5493   */\n      swap2\n      swap1\n      pop\n      jump\t// out\n        /* \"#utility.yul\":5499:5625   */\n    tag_142:\n        /* \"#utility.yul\":5536:5543   */\n      0x00\n        /* \"#utility.yul\":5576:5618   */\n      0xffffffffffffffffffffffffffffffffffffffff\n        /* \"#utility.yul\":5569:5574   */\n      dup3\n        /* \"#utility.yul\":5565:5619   */\n      and\n        /* \"#utility.yul\":5554:5619   */\n      swap1\n      pop\n        /* \"#utility.yul\":5499:5625   */\n      swap2\n      swap1\n      pop\n      jump\t// out\n        /* \"#utility.yul\":5631:5708   */\n    tag_116:\n        /* \"#utility.yul\":5668:5675   */\n      0x00\n        /* \"#utility.yul\":5697:5702   */\n      dup2\n        /* \"#utility.yul\":5686:5702   */\n      swap1\n      pop\n        /* \"#utility.yul\":5631:5708   */\n      swap2\n      swap1\n      pop\n      jump\t// out\n        /* \"#utility.yul\":5714:5868   */\n    tag_69:\n        /* \"#utility.yul\":5798:5804   */\n      dup3\n        /* \"#utility.yul\":5793:5796   */\n      dup2\n        /* \"#utility.yul\":5788:5791   */\n      dup4\n        /* \"#utility.yul\":5775:5805   */\n      calldatacopy\n        /* \"#utility.yul\":5860:5861   */\n      0x00\n        /* \"#utility.yul\":5851:5857   */\n      dup4\n        /* \"#utility.yul\":5846:5849   */\n      dup4\n        /* \"#utility.yul\":5842:5858   */\n      add\n        /* \"#utility.yul\":5835:5862   */\n      mstore\n        /* \"#utility.yul\":5714:5868   */\n      pop\n      pop\n      pop\n      jump\t// out\n        /* \"#utility.yul\":5874:6181   */\n    tag_110:\n        /* \"#utility.yul\":5942:5943   */\n      0x00\n        /* \"#utility.yul\":5952:6065   */\n    tag_147:\n        /* \"#utility.yul\":5966:5972   */\n      dup4\n        /* \"#utility.yul\":5963:5964   */\n      dup2\n        /* \"#utility.yul\":5960:5973   */\n      lt\n        /* \"#utility.yul\":5952:6065   */\n      iszero\n      tag_149\n      jumpi\n        /* \"#utility.yul\":6051:6052   */\n      dup1\n        /* \"#utility.yul\":6046:6049   */\n      dup3\n        /* \"#utility.yul\":6042:6053   */\n      add\n        /* \"#utility.yul\":6036:6054   */\n      mload\n        /* \"#utility.yul\":6032:6033   */\n      dup2\n        /* \"#utility.yul\":6027:6030   */\n      dup5\n        /* \"#utility.yul\":6023:6034   */\n      add\n        /* \"#utility.yul\":6016:6055   */\n      mstore\n        /* \"#utility.yul\":5988:5990   */\n      0x20\n        /* \"#utility.yul\":5985:5986   */\n      dup2\n        /* \"#utility.yul\":5981:5991   */\n      add\n        /* \"#utility.yul\":5976:5991   */\n      swap1\n      pop\n        /* \"#utility.yul\":5952:6065   */\n      jump(tag_147)\n    tag_149:\n        /* \"#utility.yul\":6083:6089   */\n      dup4\n        /* \"#utility.yul\":6080:6081   */\n      dup2\n        /* \"#utility.yul\":6077:6090   */\n      gt\n        /* \"#utility.yul\":6074:6175   */\n      iszero\n      tag_150\n      jumpi\n        /* \"#utility.yul\":6163:6164   */\n      0x00\n        /* \"#utility.yul\":6154:6160   */\n      dup5\n        /* \"#utility.yul\":6149:6152   */\n      dup5\n        /* \"#utility.yul\":6145:6161   */\n      add\n        /* \"#utility.yul\":6138:6165   */\n      mstore\n        /* \"#utility.yul\":6074:6175   */\n    tag_150:\n        /* \"#utility.yul\":5923:6181   */\n      pop\n        /* \"#utility.yul\":5874:6181   */\n      pop\n      pop\n      pop\n      jump\t// out\n        /* \"#utility.yul\":6187:6507   */\n    tag_21:\n        /* \"#utility.yul\":6231:6237   */\n      0x00\n        /* \"#utility.yul\":6268:6269   */\n      0x02\n        /* \"#utility.yul\":6262:6266   */\n      dup3\n        /* \"#utility.yul\":6258:6270   */\n      div\n        /* \"#utility.yul\":6248:6270   */\n      swap1\n      pop\n        /* \"#utility.yul\":6315:6316   */\n      0x01\n        /* \"#utility.yul\":6309:6313   */\n      dup3\n        /* \"#utility.yul\":6305:6317   */\n      and\n        /* \"#utility.yul\":6336:6354   */\n      dup1\n        /* \"#utility.yul\":6326:6407   */\n      tag_152\n      jumpi\n        /* \"#utility.yul\":6392:6396   */\n      0x7f\n        /* \"#utility.yul\":6384:6390   */\n      dup3\n        /* \"#utility.yul\":6380:6397   */\n      and\n        /* \"#utility.yul\":6370:6397   */\n      swap2\n      pop\n        /* \"#utility.yul\":6326:6407   */\n    tag_152:\n        /* \"#utility.yul\":6454:6456   */\n      0x20\n        /* \"#utility.yul\":6446:6452   */\n      dup3\n        /* \"#utility.yul\":6443:6457   */\n      lt\n        /* \"#utility.yul\":6423:6441   */\n      dup2\n        /* \"#utility.yul\":6420:6458   */\n      eq\n        /* \"#utility.yul\":6417:6501   */\n      iszero\n      tag_153\n      jumpi\n        /* \"#utility.yul\":6473:6491   */\n      tag_154\n      tag_155\n      jump\t// in\n    tag_154:\n        /* \"#utility.yul\":6417:6501   */\n    tag_153:\n        /* \"#utility.yul\":6238:6507   */\n      pop\n        /* \"#utility.yul\":6187:6507   */\n      swap2\n      swap1\n      pop\n      jump\t// out\n        /* \"#utility.yul\":6513:6794   */\n    tag_131:\n        /* \"#utility.yul\":6596:6623   */\n      tag_157\n        /* \"#utility.yul\":6618:6622   */\n      dup3\n        /* \"#utility.yul\":6596:6623   */\n      tag_112\n      jump\t// in\n    tag_157:\n        /* \"#utility.yul\":6588:6594   */\n      dup2\n        /* \"#utility.yul\":6584:6624   */\n      add\n        /* \"#utility.yul\":6726:6732   */\n      dup2\n        /* \"#utility.yul\":6714:6724   */\n      dup2\n        /* \"#utility.yul\":6711:6733   */\n      lt\n        /* \"#utility.yul\":6690:6708   */\n      0xffffffffffffffff\n        /* \"#utility.yul\":6678:6688   */\n      dup3\n        /* \"#utility.yul\":6675:6709   */\n      gt\n        /* \"#utility.yul\":6672:6734   */\n      or\n        /* \"#utility.yul\":6669:6757   */\n      iszero\n      tag_158\n      jumpi\n        /* \"#utility.yul\":6737:6755   */\n      tag_159\n      tag_136\n      jump\t// in\n    tag_159:\n        /* \"#utility.yul\":6669:6757   */\n    tag_158:\n        /* \"#utility.yul\":6777:6787   */\n      dup1\n        /* \"#utility.yul\":6773:6775   */\n      0x40\n        /* \"#utility.yul\":6766:6788   */\n      mstore\n        /* \"#utility.yul\":6556:6794   */\n      pop\n        /* \"#utility.yul\":6513:6794   */\n      pop\n      pop\n      jump\t// out\n        /* \"#utility.yul\":6800:7033   */\n    tag_43:\n        /* \"#utility.yul\":6839:6842   */\n      0x00\n        /* \"#utility.yul\":6862:6886   */\n      tag_161\n        /* \"#utility.yul\":6880:6885   */\n      dup3\n        /* \"#utility.yul\":6862:6886   */\n      tag_116\n      jump\t// in\n    tag_161:\n        /* \"#utility.yul\":6853:6886   */\n      swap2\n      pop\n        /* \"#utility.yul\":6908:6974   */\n      0xffffffffffffffffffffffffffffffffffffffffffffffffffffffffffffffff\n        /* \"#utility.yul\":6901:6906   */\n      dup3\n        /* \"#utility.yul\":6898:6975   */\n      eq\n        /* \"#utility.yul\":6895:6998   */\n      iszero\n      tag_162\n      jumpi\n        /* \"#utility.yul\":6978:6996   */\n      tag_163\n      tag_164\n      jump\t// in\n    tag_163:\n        /* \"#utility.yul\":6895:6998   */\n    tag_162:\n        /* \"#utility.yul\":7025:7026   */\n      0x01\n        /* \"#utility.yul\":7018:7023   */\n      dup3\n        /* \"#utility.yul\":7014:7027   */\n      add\n        /* \"#utility.yul\":7007:7027   */\n      swap1\n      pop\n        /* \"#utility.yul\":6800:7033   */\n      swap2\n      swap1\n      pop\n      jump\t// out\n        /* \"#utility.yul\":7039:7219   */\n    tag_164:\n        /* \"#utility.yul\":7087:7164   */\n      0x4e487b7100000000000000000000000000000000000000000000000000000000\n        /* \"#utility.yul\":7084:7085   */\n      0x00\n        /* \"#utility.yul\":7077:7165   */\n      mstore\n        /* \"#utility.yul\":7184:7188   */\n      0x11\n        /* \"#utility.yul\":7181:7182   */\n      0x04\n        /* \"#utility.yul\":7174:7189   */\n      mstore\n        /* \"#utility.yul\":7208:7212   */\n      0x24\n        /* \"#utility.yul\":7205:7206   */\n      0x00\n        /* \"#utility.yul\":7198:7213   */\n      revert\n        /* \"#utility.yul\":7225:7405   */\n    tag_155:\n        /* \"#utility.yul\":7273:7350   */\n      0x4e487b7100000000000000000000000000000000000000000000000000000000\n        /* \"#utility.yul\":7270:7271   */\n      0x00\n        /* \"#utility.yul\":7263:7351   */\n      mstore\n        /* \"#utility.yul\":7370:7374   */\n      0x22\n        /* \"#utility.yul\":7367:7368   */\n      0x04\n        /* \"#utility.yul\":7360:7375   */\n      mstore\n        /* \"#utility.yul\":7394:7398   */\n      0x24\n        /* \"#utility.yul\":7391:7392   */\n      0x00\n        /* \"#utility.yul\":7384:7399   */\n      revert\n        /* \"#utility.yul\":7411:7591   */\n    tag_136:\n        /* \"#utility.yul\":7459:7536   */\n      0x4e487b7100000000000000000000000000000000000000000000000000000000\n        /* \"#utility.yul\":7456:7457   */\n      0x00\n        /* \"#utility.yul\":7449:7537   */\n      mstore\n        /* \"#utility.yul\":7556:7560   */\n      0x41\n        /* \"#utility.yul\":7553:7554   */\n      0x04\n        /* \"#utility.yul\":7546:7561   */\n      mstore\n        /* \"#utility.yul\":7580:7584   */\n      0x24\n        /* \"#utility.yul\":7577:7578   */\n      0x00\n        /* \"#utility.yul\":7570:7585   */\n      revert\n        /* \"#utility.yul\":7597:7714   */\n    tag_74:\n        /* \"#utility.yul\":7706:7707   */\n      0x00\n        /* \"#utility.yul\":7703:7704   */\n      dup1\n        /* \"#utility.yul\":7696:7708   */\n      revert\n        /* \"#utility.yul\":7720:7837   */\n    tag_67:\n        /* \"#utility.yul\":7829:7830   */\n      0x00\n        /* \"#utility.yul\":7826:7827   */\n      dup1\n        /* \"#utility.yul\":7819:7831   */\n      revert\n        /* \"#utility.yul\":7843:7960   */\n    tag_86:\n        /* \"#utility.yul\":7952:7953   */\n      0x00\n        /* \"#utility.yul\":7949:7950   */\n      dup1\n        /* \"#utility.yul\":7942:7954   */\n      revert\n        /* \"#utility.yul\":7966:8083   */\n    tag_83:\n        /* \"#utility.yul\":8075:8076   */\n      0x00\n        /* \"#utility.yul\":8072:8073   */\n      dup1\n        /* \"#utility.yul\":8065:8077   */\n      revert\n        /* \"#utility.yul\":8089:8191   */\n    tag_112:\n        /* \"#utility.yul\":8130:8136   */\n      0x00\n        /* \"#utility.yul\":8181:8183   */\n      0x1f\n        /* \"#utility.yul\":8177:8184   */\n      not\n        /* \"#utility.yul\":8172:8174   */\n      0x1f\n        /* \"#utility.yul\":8165:8170   */\n      dup4\n        /* \"#utility.yul\":8161:8175   */\n      add\n        /* \"#utility.yul\":8157:8185   */\n      and\n        /* \"#utility.yul\":8147:8185   */\n      swap1\n      pop\n        /* \"#utility.yul\":8089:8191   */\n      swap2\n      swap1\n      pop\n      jump\t// out\n        /* \"#utility.yul\":8197:8319   */\n    tag_79:\n        /* \"#utility.yul\":8270:8294   */\n      tag_174\n        /* \"#utility.yul\":8288:8293   */\n      dup2\n        /* \"#utility.yul\":8270:8294   */\n      tag_116\n      jump\t// in\n    tag_174:\n        /* \"#utility.yul\":8263:8268   */\n      dup2\n        /* \"#utility.yul\":8260:8295   */\n      eq\n        /* \"#utility.yul\":8250:8313   */\n      tag_175\n      jumpi\n        /* \"#utility.yul\":8309:8310   */\n      0x00\n        /* \"#utility.yul\":8306:8307   */\n      dup1\n        /* \"#utility.yul\":8299:8311   */\n      revert\n        /* \"#utility.yul\":8250:8313   */\n    tag_175:\n        /* \"#utility.yul\":8197:8319   */\n      pop\n      jump\t// out\n\n    auxdata: 0xa2646970667358221220fd088cc8ab4f2a6964f855ee0c7c8b843cf8f27d473fc4bc96d5ee79d1a6be1c64736f6c63430008070033\n}\n","bytecode":{"linkReferences":{},"object":"60806040526000805534801561001457600080fd5b50610a03806100246000396000f3fe608060405234801561001057600080fd5b50600436106100415760003560e01c806347d52ef214610046578063817e1cc51461007c578063a1b4dce714610098575b600080fd5b610060600480360381019061005b9190610645565b6100b6565b60405161007397969594939291906106e4565b60405180910390f35b6100966004803603810190610091919061058a565b6102b0565b005b6100a061045c565b6040516100ad91906106c9565b60405180910390f35b60016020528060005260406000206000915090508060000154908060010180546100df90610858565b80601f016020809104026020016040519081016040528092919081815260200182805461010b90610858565b80156101585780601f1061012d57610100808354040283529160200191610158565b820191906000526020600020905b81548152906001019060200180831161013b57829003601f168201915b50505050509080600201805461016d90610858565b80601f016020809104026020016040519081016040528092919081815260200182805461019990610858565b80156101e65780601f106101bb576101008083540402835291602001916101e6565b820191906000526020600020905b8154815290600101906020018083116101c957829003601f168201915b50505050509080600301549080600401805461020190610858565b80601f016020809104026020016040519081016040528092919081815260200182805461022d90610858565b801561027a5780601f1061024f5761010080835404028352916020019161027a565b820191906000526020600020905b81548152906001019060200180831161025d57829003601f168201915b5050505050908060050154908060060160009054906101000a900473ffffffffffffffffffffffffffffffffffffffff16905087565b60008451116102be57600080fd5b60008351116102cc57600080fd5b60008151116102da57600080fd5b600073ffffffffffffffffffffffffffffffffffffffff163373ffffffffffffffffffffffffffffffffffffffff16141561031457600080fd5b6000821161032157600080fd5b600080815480929190610333906108bb565b91905055506040518060e0016040528060005481526020018581526020018481526020018381526020018281526020014281526020013373ffffffffffffffffffffffffffffffffffffffff1681525060016000805481526020019081526020016000206000820151816000015560208201518160010190805190602001906103bd929190610462565b5060408201518160020190805190602001906103da929190610462565b50606082015181600301556080820151816004019080519060200190610401929190610462565b5060a0820151816005015560c08201518160060160006101000a81548173ffffffffffffffffffffffffffffffffffffffff021916908373ffffffffffffffffffffffffffffffffffffffff16021790555090505050505050565b60005481565b82805461046e90610858565b90600052602060002090601f01602090048101928261049057600085556104d7565b82601f106104a957805160ff19168380011785556104d7565b828001600101855582156104d7579182015b828111156104d65782518255916020019190600101906104bb565b5b5090506104e491906104e8565b5090565b5b808211156105015760008160009055506001016104e9565b5090565b60006105186105138461078d565b610768565b90508281526020810184848401111561053457610533610996565b5b61053f848285610816565b509392505050565b600082601f83011261055c5761055b610991565b5b813561056c848260208601610505565b91505092915050565b600081359050610584816109b6565b92915050565b600080600080608085870312156105a4576105a36109a0565b5b600085013567ffffffffffffffff8111156105c2576105c161099b565b5b6105ce87828801610547565b945050602085013567ffffffffffffffff8111156105ef576105ee61099b565b5b6105fb87828801610547565b935050604061060c87828801610575565b925050606085013567ffffffffffffffff81111561062d5761062c61099b565b5b61063987828801610547565b91505092959194509250565b60006020828403121561065b5761065a6109a0565b5b600061066984828501610575565b91505092915050565b61067b816107da565b82525050565b600061068c826107be565b61069681856107c9565b93506106a6818560208601610825565b6106af816109a5565b840191505092915050565b6106c38161080c565b82525050565b60006020820190506106de60008301846106ba565b92915050565b600060e0820190506106f9600083018a6106ba565b818103602083015261070b8189610681565b9050818103604083015261071f8188610681565b905061072e60608301876106ba565b81810360808301526107408186610681565b905061074f60a08301856106ba565b61075c60c0830184610672565b98975050505050505050565b6000610772610783565b905061077e828261088a565b919050565b6000604051905090565b600067ffffffffffffffff8211156107a8576107a7610962565b5b6107b1826109a5565b9050602081019050919050565b600081519050919050565b600082825260208201905092915050565b60006107e5826107ec565b9050919050565b600073ffffffffffffffffffffffffffffffffffffffff82169050919050565b6000819050919050565b82818337600083830152505050565b60005b83811015610843578082015181840152602081019050610828565b83811115610852576000848401525b50505050565b6000600282049050600182168061087057607f821691505b6020821081141561088457610883610933565b5b50919050565b610893826109a5565b810181811067ffffffffffffffff821117156108b2576108b1610962565b5b80604052505050565b60006108c68261080c565b91507fffffffffffffffffffffffffffffffffffffffffffffffffffffffffffffffff8214156108f9576108f8610904565b5b600182019050919050565b7f4e487b7100000000000000000000000000000000000000000000000000000000600052601160045260246000fd5b7f4e487b7100000000000000000000000000000000000000000000000000000000600052602260045260246000fd5b7f4e487b7100000000000000000000000000000000000000000000000000000000600052604160045260246000fd5b600080fd5b600080fd5b600080fd5b600080fd5b6000601f19601f8301169050919050565b6109bf8161080c565b81146109ca57600080fd5b5056fea2646970667358221220fd088cc8ab4f2a6964f855ee0c7c8b843cf8f27d473fc4bc96d5ee79d1a6be1c64736f6c63430008070033","opcodes":"PUSH1 0x80 PUSH1 0x40 MSTORE PUSH1 0x0 DUP1 SSTORE CALLVALUE DUP1 ISZERO PUSH2 0x14 JUMPI PUSH1 0x0 DUP1 REVERT JUMPDEST POP PUSH2 0xA03 DUP1 PUSH2 0x24 PUSH1 0x0 CODECOPY PUSH1 0x0 RETURN INVALID PUSH1 0x80 PUSH1 0x40 MSTORE CALLVALUE DUP1 ISZERO PUSH2 0x10 JUMPI PUSH1 0x0 DUP1 REVERT JUMPDEST POP PUSH1 0x4 CALLDATASIZE LT PUSH2 0x41 JUMPI PUSH1 0x0 CALLDATALOAD PUSH1 0xE0 SHR DUP1 PUSH4 0x47D52EF2 EQ PUSH2 0x46 JUMPI DUP1 PUSH4 0x817E1CC5 EQ PUSH2 0x7C JUMPI DUP1 PUSH4 0xA1B4DCE7 EQ PUSH2 0x98 JUMPI JUMPDEST PUSH1 0x0 DUP1 REVERT JUMPDEST PUSH2 0x60 PUSH1 0x4 DUP1 CALLDATASIZE SUB DUP2 ADD SWAP1 PUSH2 0x5B SWAP2 SWAP1 PUSH2 0x645 JUMP JUMPDEST PUSH2 0xB6 JUMP JUMPDEST PUSH1 0x40 MLOAD PUSH2 0x73 SWAP8 SWAP7 SWAP6 SWAP5 SWAP4 SWAP3 SWAP2 SWAP1 PUSH2 0x6E4 JUMP JUMPDEST PUSH1 0x40 MLOAD DUP1 SWAP2 SUB SWAP1 RETURN JUMPDEST PUSH2 0x96 PUSH1 0x4 DUP1 CALLDATASIZE SUB DUP2 ADD SWAP1 PUSH2 0x91 SWAP2 SWAP1 PUSH2 0x58A JUMP JUMPDEST PUSH2 0x2B0 JUMP JUMPDEST STOP JUMPDEST PUSH2 0xA0 PUSH2 0x45C JUMP JUMPDEST PUSH1 0x40 MLOAD PUSH2 0xAD SWAP2 SWAP1 PUSH2 0x6C9 JUMP JUMPDEST PUSH1 0x40 MLOAD DUP1 SWAP2 SUB SWAP1 RETURN JUMPDEST PUSH1 0x1 PUSH1 0x20 MSTORE DUP1 PUSH1 0x0 MSTORE PUSH1 0x40 PUSH1 0x0 KECCAK256 PUSH1 0x0 SWAP2 POP SWAP1 POP DUP1 PUSH1 0x0 ADD SLOAD SWAP1 DUP1 PUSH1 0x1 ADD DUP1 SLOAD PUSH2 0xDF SWAP1 PUSH2 0x858 JUMP JUMPDEST DUP1 PUSH1 0x1F ADD PUSH1 0x20 DUP1 SWAP2 DIV MUL PUSH1 0x20 ADD PUSH1 0x40 MLOAD SWAP1 DUP2 ADD PUSH1 0x40 MSTORE DUP1 SWAP3 SWAP2 SWAP1 DUP2 DUP2 MSTORE PUSH1 0x20 ADD DUP3 DUP1 SLOAD PUSH2 0x10B SWAP1 PUSH2 0x858 JUMP JUMPDEST DUP1 ISZERO PUSH2 0x158 JUMPI DUP1 PUSH1 0x1F LT PUSH2 0x12D JUMPI PUSH2 0x100 DUP1 DUP4 SLOAD DIV MUL DUP4 MSTORE SWAP2 PUSH1 0x20 ADD SWAP2 PUSH2 0x158 JUMP JUMPDEST DUP3 ADD SWAP2 SWAP1 PUSH1 0x0 MSTORE PUSH1 0x20 PUSH1 0x0 KECCAK256 SWAP1 JUMPDEST DUP2 SLOAD DUP2 MSTORE SWAP1 PUSH1 0x1 ADD SWAP1 PUSH1 0x20 ADD DUP1 DUP4 GT PUSH2 0x13B JUMPI DUP3 SWAP1 SUB PUSH1 0x1F AND DUP3 ADD SWAP2 JUMPDEST POP POP POP POP POP SWAP1 DUP1 PUSH1 0x2 ADD DUP1 SLOAD PUSH2 0x16D SWAP1 PUSH2 0x858 JUMP JUMPDEST DUP1 PUSH1 0x1F ADD PUSH1 0x20 DUP1 SWAP2 DIV MUL PUSH1 0x20 ADD PUSH1 0x40 MLOAD SWAP1 DUP2 ADD PUSH1 0x40 MSTORE DUP1 SWAP3 SWAP2 SWAP1 DUP2 DUP2 MSTORE PUSH1 0x20 ADD DUP3 DUP1 SLOAD PUSH2 0x199 SWAP1 PUSH2 0x858 JUMP JUMPDEST DUP1 ISZERO PUSH2 0x1E6 JUMPI DUP1 PUSH1 0x1F LT PUSH2 0x1BB JUMPI PUSH2 0x100 DUP1 DUP4 SLOAD DIV MUL DUP4 MSTORE SWAP2 PUSH1 0x20 ADD SWAP2 PUSH2 0x1E6 JUMP JUMPDEST DUP3 ADD SWAP2 SWAP1 PUSH1 0x0 MSTORE PUSH1 0x20 PUSH1 0x0 KECCAK256 SWAP1 JUMPDEST DUP2 SLOAD DUP2 MSTORE SWAP1 PUSH1 0x1 ADD SWAP1 PUSH1 0x20 ADD DUP1 DUP4 GT PUSH2 0x1C9 JUMPI DUP3 SWAP1 SUB PUSH1 0x1F AND DUP3 ADD SWAP2 JUMPDEST POP POP POP POP POP SWAP1 DUP1 PUSH1 0x3 ADD SLOAD SWAP1 DUP1 PUSH1 0x4 ADD DUP1 SLOAD PUSH2 0x201 SWAP1 PUSH2 0x858 JUMP JUMPDEST DUP1 PUSH1 0x1F ADD PUSH1 0x20 DUP1 SWAP2 DIV MUL PUSH1 0x20 ADD PUSH1 0x40 MLOAD SWAP1 DUP2 ADD PUSH1 0x40 MSTORE DUP1 SWAP3 SWAP2 SWAP1 DUP2 DUP2 MSTORE PUSH1 0x20 ADD DUP3 DUP1 SLOAD PUSH2 0x22D SWAP1 PUSH2 0x858 JUMP JUMPDEST DUP1 ISZERO PUSH2 0x27A JUMPI DUP1 PUSH1 0x1F LT PUSH2 0x24F JUMPI PUSH2 0x100 DUP1 DUP4 SLOAD DIV MUL DUP4 MSTORE SWAP2 PUSH1 0x20 ADD SWAP2 PUSH2 0x27A JUMP JUMPDEST DUP3 ADD SWAP2 SWAP1 PUSH1 0x0 MSTORE PUSH1 0x20 PUSH1 0x0 KECCAK256 SWAP1 JUMPDEST DUP2 SLOAD DUP2 MSTORE SWAP1 PUSH1 0x1 ADD SWAP1 PUSH1 0x20 ADD DUP1 DUP4 GT PUSH2 0x25D JUMPI DUP3 SWAP1 SUB PUSH1 0x1F AND DUP3 ADD SWAP2 JUMPDEST POP POP POP POP POP SWAP1 DUP1 PUSH1 0x5 ADD SLOAD SWAP1 DUP1 PUSH1 0x6 ADD PUSH1 0x0 SWAP1 SLOAD SWAP1 PUSH2 0x100 EXP SWAP1 DIV PUSH20 0xFFFFFFFFFFFFFFFFFFFFFFFFFFFFFFFFFFFFFFFF AND SWAP1 POP DUP8 JUMP JUMPDEST PUSH1 0x0 DUP5 MLOAD GT PUSH2 0x2BE JUMPI PUSH1 0x0 DUP1 REVERT JUMPDEST PUSH1 0x0 DUP4 MLOAD GT PUSH2 0x2CC JUMPI PUSH1 0x0 DUP1 REVERT JUMPDEST PUSH1 0x0 DUP2 MLOAD GT PUSH2 0x2DA JUMPI PUSH1 0x0 DUP1 REVERT JUMPDEST PUSH1 0x0 PUSH20 0xFFFFFFFFFFFFFFFFFFFFFFFFFFFFFFFFFFFFFFFF AND CALLER PUSH20 0xFFFFFFFFFFFFFFFFFFFFFFFFFFFFFFFFFFFFFFFF AND EQ ISZERO PUSH2 0x314 JUMPI PUSH1 0x0 DUP1 REVERT JUMPDEST PUSH1 0x0 DUP3 GT PUSH2 0x321 JUMPI PUSH1 0x0 DUP1 REVERT JUMPDEST PUSH1 0x0 DUP1 DUP2 SLOAD DUP1 SWAP3 SWAP2 SWAP1 PUSH2 0x333 SWAP1 PUSH2 0x8BB JUMP JUMPDEST SWAP2 SWAP1 POP SSTORE POP PUSH1 0x40 MLOAD DUP1 PUSH1 0xE0 ADD PUSH1 0x40 MSTORE DUP1 PUSH1 0x0 SLOAD DUP2 MSTORE PUSH1 0x20 ADD DUP6 DUP2 MSTORE PUSH1 0x20 ADD DUP5 DUP2 MSTORE PUSH1 0x20 ADD DUP4 DUP2 MSTORE PUSH1 0x20 ADD DUP3 DUP2 MSTORE PUSH1 0x20 ADD TIMESTAMP DUP2 MSTORE PUSH1 0x20 ADD CALLER PUSH20 0xFFFFFFFFFFFFFFFFFFFFFFFFFFFFFFFFFFFFFFFF AND DUP2 MSTORE POP PUSH1 0x1 PUSH1 0x0 DUP1 SLOAD DUP2 MSTORE PUSH1 0x20 ADD SWAP1 DUP2 MSTORE PUSH1 0x20 ADD PUSH1 0x0 KECCAK256 PUSH1 0x0 DUP3 ADD MLOAD DUP2 PUSH1 0x0 ADD SSTORE PUSH1 0x20 DUP3 ADD MLOAD DUP2 PUSH1 0x1 ADD SWAP1 DUP1 MLOAD SWAP1 PUSH1 0x20 ADD SWAP1 PUSH2 0x3BD SWAP3 SWAP2 SWAP1 PUSH2 0x462 JUMP JUMPDEST POP PUSH1 0x40 DUP3 ADD MLOAD DUP2 PUSH1 0x2 ADD SWAP1 DUP1 MLOAD SWAP1 PUSH1 0x20 ADD SWAP1 PUSH2 0x3DA SWAP3 SWAP2 SWAP1 PUSH2 0x462 JUMP JUMPDEST POP PUSH1 0x60 DUP3 ADD MLOAD DUP2 PUSH1 0x3 ADD SSTORE PUSH1 0x80 DUP3 ADD MLOAD DUP2 PUSH1 0x4 ADD SWAP1 DUP1 MLOAD SWAP1 PUSH1 0x20 ADD SWAP1 PUSH2 0x401 SWAP3 SWAP2 SWAP1 PUSH2 0x462 JUMP JUMPDEST POP PUSH1 0xA0 DUP3 ADD MLOAD DUP2 PUSH1 0x5 ADD SSTORE PUSH1 0xC0 DUP3 ADD MLOAD DUP2 PUSH1 0x6 ADD PUSH1 0x0 PUSH2 0x100 EXP DUP2 SLOAD DUP2 PUSH20 0xFFFFFFFFFFFFFFFFFFFFFFFFFFFFFFFFFFFFFFFF MUL NOT AND SWAP1 DUP4 PUSH20 0xFFFFFFFFFFFFFFFFFFFFFFFFFFFFFFFFFFFFFFFF AND MUL OR SWAP1 SSTORE POP SWAP1 POP POP POP POP POP POP JUMP JUMPDEST PUSH1 0x0 SLOAD DUP2 JUMP JUMPDEST DUP3 DUP1 SLOAD PUSH2 0x46E SWAP1 PUSH2 0x858 JUMP JUMPDEST SWAP1 PUSH1 0x0 MSTORE PUSH1 0x20 PUSH1 0x0 KECCAK256 SWAP1 PUSH1 0x1F ADD PUSH1 0x20 SWAP1 DIV DUP2 ADD SWAP3 DUP3 PUSH2 0x490 JUMPI PUSH1 0x0 DUP6 SSTORE PUSH2 0x4D7 JUMP JUMPDEST DUP3 PUSH1 0x1F LT PUSH2 0x4A9 JUMPI DUP1 MLOAD PUSH1 0xFF NOT AND DUP4 DUP1 ADD OR DUP6 SSTORE PUSH2 0x4D7 JUMP JUMPDEST DUP3 DUP1 ADD PUSH1 0x1 ADD DUP6 SSTORE DUP3 ISZERO PUSH2 0x4D7 JUMPI SWAP2 DUP3 ADD JUMPDEST DUP3 DUP2 GT ISZERO PUSH2 0x4D6 JUMPI DUP3 MLOAD DUP3 SSTORE SWAP2 PUSH1 0x20 ADD SWAP2 SWAP1 PUSH1 0x1 ADD SWAP1 PUSH2 0x4BB JUMP JUMPDEST JUMPDEST POP SWAP1 POP PUSH2 0x4E4 SWAP2 SWAP1 PUSH2 0x4E8 JUMP JUMPDEST POP SWAP1 JUMP JUMPDEST JUMPDEST DUP1 DUP3 GT ISZERO PUSH2 0x501 JUMPI PUSH1 0x0 DUP2 PUSH1 0x0 SWAP1 SSTORE POP PUSH1 0x1 ADD PUSH2 0x4E9 JUMP JUMPDEST POP SWAP1 JUMP JUMPDEST PUSH1 0x0 PUSH2 0x518 PUSH2 0x513 DUP5 PUSH2 0x78D JUMP JUMPDEST PUSH2 0x768 JUMP JUMPDEST SWAP1 POP DUP3 DUP2 MSTORE PUSH1 0x20 DUP2 ADD DUP5 DUP5 DUP5 ADD GT ISZERO PUSH2 0x534 JUMPI PUSH2 0x533 PUSH2 0x996 JUMP JUMPDEST JUMPDEST PUSH2 0x53F DUP5 DUP3 DUP6 PUSH2 0x816 JUMP JUMPDEST POP SWAP4 SWAP3 POP POP POP JUMP JUMPDEST PUSH1 0x0 DUP3 PUSH1 0x1F DUP4 ADD SLT PUSH2 0x55C JUMPI PUSH2 0x55B PUSH2 0x991 JUMP JUMPDEST JUMPDEST DUP2 CALLDATALOAD PUSH2 0x56C DUP5 DUP3 PUSH1 0x20 DUP7 ADD PUSH2 0x505 JUMP JUMPDEST SWAP2 POP POP SWAP3 SWAP2 POP POP JUMP JUMPDEST PUSH1 0x0 DUP2 CALLDATALOAD SWAP1 POP PUSH2 0x584 DUP2 PUSH2 0x9B6 JUMP JUMPDEST SWAP3 SWAP2 POP POP JUMP JUMPDEST PUSH1 0x0 DUP1 PUSH1 0x0 DUP1 PUSH1 0x80 DUP6 DUP8 SUB SLT ISZERO PUSH2 0x5A4 JUMPI PUSH2 0x5A3 PUSH2 0x9A0 JUMP JUMPDEST JUMPDEST PUSH1 0x0 DUP6 ADD CALLDATALOAD PUSH8 0xFFFFFFFFFFFFFFFF DUP2 GT ISZERO PUSH2 0x5C2 JUMPI PUSH2 0x5C1 PUSH2 0x99B JUMP JUMPDEST JUMPDEST PUSH2 0x5CE DUP8 DUP3 DUP9 ADD PUSH2 0x547 JUMP JUMPDEST SWAP5 POP POP PUSH1 0x20 DUP6 ADD CALLDATALOAD PUSH8 0xFFFFFFFFFFFFFFFF DUP2 GT ISZERO PUSH2 0x5EF JUMPI PUSH2 0x5EE PUSH2 0x99B JUMP JUMPDEST JUMPDEST PUSH2 0x5FB DUP8 DUP3 DUP9 ADD PUSH2 0x547 JUMP JUMPDEST SWAP4 POP POP PUSH1 0x40 PUSH2 0x60C DUP8 DUP3 DUP9 ADD PUSH2 0x575 JUMP JUMPDEST SWAP3 POP POP PUSH1 0x60 DUP6 ADD CALLDATALOAD PUSH8 0xFFFFFFFFFFFFFFFF DUP2 GT ISZERO PUSH2 0x62D JUMPI PUSH2 0x62C PUSH2 0x99B JUMP JUMPDEST JUMPDEST PUSH2 0x639 DUP8 DUP3 DUP9 ADD PUSH2 0x547 JUMP JUMPDEST SWAP2 POP POP SWAP3 SWAP6 SWAP2 SWAP5 POP SWAP3 POP JUMP JUMPDEST PUSH1 0x0 PUSH1 0x20 DUP3 DUP5 SUB SLT ISZERO PUSH2 0x65B JUMPI PUSH2 0x65A PUSH2 0x9A0 JUMP JUMPDEST JUMPDEST PUSH1 0x0 PUSH2 0x669 DUP5 DUP3 DUP6 ADD PUSH2 0x575 JUMP JUMPDEST SWAP2 POP POP SWAP3 SWAP2 POP POP JUMP JUMPDEST PUSH2 0x67B DUP2 PUSH2 0x7DA JUMP JUMPDEST DUP3 MSTORE POP POP JUMP JUMPDEST PUSH1 0x0 PUSH2 0x68C DUP3 PUSH2 0x7BE JUMP JUMPDEST PUSH2 0x696 DUP2 DUP6 PUSH2 0x7C9 JUMP JUMPDEST SWAP4 POP PUSH2 0x6A6 DUP2 DUP6 PUSH1 0x20 DUP7 ADD PUSH2 0x825 JUMP JUMPDEST PUSH2 0x6AF DUP2 PUSH2 0x9A5 JUMP JUMPDEST DUP5 ADD SWAP2 POP POP SWAP3 SWAP2 POP POP JUMP JUMPDEST PUSH2 0x6C3 DUP2 PUSH2 0x80C JUMP JUMPDEST DUP3 MSTORE POP POP JUMP JUMPDEST PUSH1 0x0 PUSH1 0x20 DUP3 ADD SWAP1 POP PUSH2 0x6DE PUSH1 0x0 DUP4 ADD DUP5 PUSH2 0x6BA JUMP JUMPDEST SWAP3 SWAP2 POP POP JUMP JUMPDEST PUSH1 0x0 PUSH1 0xE0 DUP3 ADD SWAP1 POP PUSH2 0x6F9 PUSH1 0x0 DUP4 ADD DUP11 PUSH2 0x6BA JUMP JUMPDEST DUP2 DUP2 SUB PUSH1 0x20 DUP4 ADD MSTORE PUSH2 0x70B DUP2 DUP10 PUSH2 0x681 JUMP JUMPDEST SWAP1 POP DUP2 DUP2 SUB PUSH1 0x40 DUP4 ADD MSTORE PUSH2 0x71F DUP2 DUP9 PUSH2 0x681 JUMP JUMPDEST SWAP1 POP PUSH2 0x72E PUSH1 0x60 DUP4 ADD DUP8 PUSH2 0x6BA JUMP JUMPDEST DUP2 DUP2 SUB PUSH1 0x80 DUP4 ADD MSTORE PUSH2 0x740 DUP2 DUP7 PUSH2 0x681 JUMP JUMPDEST SWAP1 POP PUSH2 0x74F PUSH1 0xA0 DUP4 ADD DUP6 PUSH2 0x6BA JUMP JUMPDEST PUSH2 0x75C PUSH1 0xC0 DUP4 ADD DUP5 PUSH2 0x672 JUMP JUMPDEST SWAP9 SWAP8 POP POP POP POP POP POP POP POP JUMP JUMPDEST PUSH1 0x0 PUSH2 0x772 PUSH2 0x783 JUMP JUMPDEST SWAP1 POP PUSH2 0x77E DUP3 DUP3 PUSH2 0x88A JUMP JUMPDEST SWAP2 SWAP1 POP JUMP JUMPDEST PUSH1 0x0 PUSH1 0x40 MLOAD SWAP1 POP SWAP1 JUMP JUMPDEST PUSH1 0x0 PUSH8 0xFFFFFFFFFFFFFFFF DUP3 GT ISZERO PUSH2 0x7A8 JUMPI PUSH2 0x7A7 PUSH2 0x962 JUMP JUMPDEST JUMPDEST PUSH2 0x7B1 DUP3 PUSH2 0x9A5 JUMP JUMPDEST SWAP1 POP PUSH1 0x20 DUP2 ADD SWAP1 POP SWAP2 SWAP1 POP JUMP JUMPDEST PUSH1 0x0 DUP2 MLOAD SWAP1 POP SWAP2 SWAP1 POP JUMP JUMPDEST PUSH1 0x0 DUP3 DUP3 MSTORE PUSH1 0x20 DUP3 ADD SWAP1 POP SWAP3 SWAP2 POP POP JUMP JUMPDEST PUSH1 0x0 PUSH2 0x7E5 DUP3 PUSH2 0x7EC JUMP JUMPDEST SWAP1 POP SWAP2 SWAP1 POP JUMP JUMPDEST PUSH1 0x0 PUSH20 0xFFFFFFFFFFFFFFFFFFFFFFFFFFFFFFFFFFFFFFFF DUP3 AND SWAP1 POP SWAP2 SWAP1 POP JUMP JUMPDEST PUSH1 0x0 DUP2 SWAP1 POP SWAP2 SWAP1 POP JUMP JUMPDEST DUP3 DUP2 DUP4 CALLDATACOPY PUSH1 0x0 DUP4 DUP4 ADD MSTORE POP POP POP JUMP JUMPDEST PUSH1 0x0 JUMPDEST DUP4 DUP2 LT ISZERO PUSH2 0x843 JUMPI DUP1 DUP3 ADD MLOAD DUP2 DUP5 ADD MSTORE PUSH1 0x20 DUP2 ADD SWAP1 POP PUSH2 0x828 JUMP JUMPDEST DUP4 DUP2 GT ISZERO PUSH2 0x852 JUMPI PUSH1 0x0 DUP5 DUP5 ADD MSTORE JUMPDEST POP POP POP POP JUMP JUMPDEST PUSH1 0x0 PUSH1 0x2 DUP3 DIV SWAP1 POP PUSH1 0x1 DUP3 AND DUP1 PUSH2 0x870 JUMPI PUSH1 0x7F DUP3 AND SWAP2 POP JUMPDEST PUSH1 0x20 DUP3 LT DUP2 EQ ISZERO PUSH2 0x884 JUMPI PUSH2 0x883 PUSH2 0x933 JUMP JUMPDEST JUMPDEST POP SWAP2 SWAP1 POP JUMP JUMPDEST PUSH2 0x893 DUP3 PUSH2 0x9A5 JUMP JUMPDEST DUP2 ADD DUP2 DUP2 LT PUSH8 0xFFFFFFFFFFFFFFFF DUP3 GT OR ISZERO PUSH2 0x8B2 JUMPI PUSH2 0x8B1 PUSH2 0x962 JUMP JUMPDEST JUMPDEST DUP1 PUSH1 0x40 MSTORE POP POP POP JUMP JUMPDEST PUSH1 0x0 PUSH2 0x8C6 DUP3 PUSH2 0x80C JUMP JUMPDEST SWAP2 POP PUSH32 0xFFFFFFFFFFFFFFFFFFFFFFFFFFFFFFFFFFFFFFFFFFFFFFFFFFFFFFFFFFFFFFFF DUP3 EQ ISZERO PUSH2 0x8F9 JUMPI PUSH2 0x8F8 PUSH2 0x904 JUMP JUMPDEST JUMPDEST PUSH1 0x1 DUP3 ADD SWAP1 POP SWAP2 SWAP1 POP JUMP JUMPDEST PUSH32 0x4E487B7100000000000000000000000000000000000000000000000000000000 PUSH1 0x0 MSTORE PUSH1 0x11 PUSH1 0x4 MSTORE PUSH1 0x24 PUSH1 0x0 REVERT JUMPDEST PUSH32 0x4E487B7100000000000000000000000000000000000000000000000000000000 PUSH1 0x0 MSTORE PUSH1 0x22 PUSH1 0x4 MSTORE PUSH1 0x24 PUSH1 0x0 REVERT JUMPDEST PUSH32 0x4E487B7100000000000000000000000000000000000000000000000000000000 PUSH1 0x0 MSTORE PUSH1 0x41 PUSH1 0x4 MSTORE PUSH1 0x24 PUSH1 0x0 REVERT JUMPDEST PUSH1 0x0 DUP1 REVERT JUMPDEST PUSH1 0x0 DUP1 REVERT JUMPDEST PUSH1 0x0 DUP1 REVERT JUMPDEST PUSH1 0x0 DUP1 REVERT JUMPDEST PUSH1 0x0 PUSH1 0x1F NOT PUSH1 0x1F DUP4 ADD AND SWAP1 POP SWAP2 SWAP1 POP JUMP JUMPDEST PUSH2 0x9BF DUP2 PUSH2 0x80C JUMP JUMPDEST DUP2 EQ PUSH2 0x9CA JUMPI PUSH1 0x0 DUP1 REVERT JUMPDEST POP JUMP INVALID LOG2 PUSH5 0x6970667358 0x22 SLT KECCAK256 REVERT ADDMOD DUP13 0xC8 0xAB 0x4F 0x2A PUSH10 0x64F855EE0C7C8B843CF8 CALLCODE PUSH30 0x473FC4BC96D5EE79D1A6BE1C64736F6C6343000807003300000000000000 "},"gasEstimates":{"creation":{"codeDepositCost":"512600","executionCost":"5555","totalCost":"518155"},"external":{"Files(uint256)":"infinite","addFiles(string,string,uint256,string)":"infinite","fileIndex()":"2451"}},"methodIdentifiers":{"Files(uint256)":"47d52ef2","addFiles(string,string,uint256,string)":"817e1cc5","fileIndex()":"a1b4dce7"}},"storageLayout":{"storage":[{"astId":4,"contract":"File.sol:FileContract","label":"fileIndex","offset":0,"slot":"0","type":"t_uint256"},{"astId":24,"contract":"File.sol:FileContract","label":"Files","offset":0,"slot":"1","type":"t_mapping(t_uint256,t_struct(newFile)19_storage)"}],"types":{"t_address":{"encoding":"inplace","label":"address","numberOfBytes":"20"},"t_mapping(t_uint256,t_struct(newFile)19_storage)":{"encoding":"mapping","key":"t_uint256","label":"mapping(uint256 => struct FileContract.newFile)","numberOfBytes":"32","value":"t_struct(newFile)19_storage"},"t_string_storage":{"encoding":"bytes","label":"string","numberOfBytes":"32"},"t_struct(newFile)19_storage":{"encoding":"inplace","label":"struct FileContract.newFile","members":[{"astId":6,"contract":"File.sol:FileContract","label":"fileId","offset":0,"slot":"0","type":"t_uint256"},{"astId":8,"contract":"File.sol:FileContract","label":"filename","offset":0,"slot":"1","type":"t_string_storage"},{"astId":10,"contract":"File.sol:FileContract","label":"filehash","offset":0,"slot":"2","type":"t_string_storage"},{"astId":12,"contract":"File.sol:FileContract","label":"filesize","offset":0,"slot":"3","type":"t_uint256"},{"astId":14,"contract":"File.sol:FileContract","label":"filedescription","offset":0,"slot":"4","type":"t_string_storage"},{"astId":16,"contract":"File.sol:FileContract","label":"uploadTime","offset":0,"slot":"5","type":"t_uint256"},{"astId":18,"contract":"File.sol:FileContract","label":"uploader","offset":0,"slot":"6","type":"t_address"}],"numberOfBytes":"224"},"t_uint256":{"encoding":"inplace","label":"uint256","numberOfBytes":"32"}}},"userdoc":{"kind":"user","methods":{},"version":1}}